:0302550001120093
:03000B000201CE21
:1001CE00C0E0C0D0E5A0640F602BE5A0540F24F969
:1001DE00601D24FC601124FE600814701875130154
:1001EE00800875130280037513037512008006755F
:1001FE001304751201758C06758A06D0D0D0E032C4
:10020E007590F0758902758C06758A06D2AFD2A9E3
:0F021E00D28CE4F511AF1312018112000E80F69D
:10022D007D607CE3EFD394004013D3ED9400EC9408
:0D023D00004007ED1D70F31C80F01F80E7EE
:01024A002291
:0A024B00039F250D9949411F010989
:10000E00E4F50CE51270030200F4E5116463605B25
:10001E00E51175F00A8490024B93F509E4F50AE5B3
:10002E0009139200A20092B5D2B4C2B4E509C3136B
:10003E00F509050AE50AB408E6E51175F00A84E546
:10004E00F090024B93F508E4F50BE508139201A22C
:10005E000192B5D2B4C2B4E508C313F508050BE599
:10006E000BB408E605117F6412022D050CE50CC3D6
:10007E009463408F751163750C63E5126068E5112A
:10008E00605BE51175F00A8490024B93F509E4F577
:10009E000AE509139200A20092B5D2B4C2B4E509E2
:1000AE00C313F509050AE50AB408E6E51175F00A69
:1000BE0084E5F090024B93F508E4F50BE5081392F6
:1000CE0001A20192B5D2B4C2B4E508C313F5080576
:1000DE000BE50BB408E615117F6412022D150CE525
:0700EE000CD3940050942292
:05025800030DFEFDFB9B
:100181008F14E514B4011CE4F510740D2510F8E684
:10019100F5907F8012022D0510D3E51064809482C2
:1001A10040E822E514B4021C751002740D2510F804
:1001B100E6F5907F8012022D1510C3E5106480943E
:0D01C1008050E822E514B403037590FF227E
:030000000200F506
:0C00F500787FE4F6D8FD75812002013C04
:1001010002020EE493A3F8E493A34003F68001F204
:1001110008DFF48029E493A3F85407240CC8C333FF
:10012100C4540F4420C8834004F456800146F6DFCE
:10013100E4800B0102040810204080900255E47E07
:10014100019360BCA3FF543F30E509541FFEE493C3
:10015100A360010ECF54C025E060A840B8E493A38A
:10016100FAE493A3F8E493A3C8C582C8CAC583CAB5
:10017100F0A3C8C582C8CAC583CADFE9DEE780BE6D
:01025D0000A0
:00000001FF
